:020000040800F2
:1000000000500020210400089D0200089F02000803
:10001000A1020008A3020008A502000800000000D9
:10002000000000000000000000000000A70200081F
:10003000A902000800000000AB020008AD020008A1
:1000400069040008690400086904000869040008DC
:1000500069040008690400086904000869040008CC
:1000600069040008690400086904000869040008BC
:10007000690400086904000869040008B502000862
:10008000690400086904000869040008690400089C
:10009000690400086904000869040008690400088C
:1000A000690400086904000869040008690400087C
:1000B000690400086904000869040008690400086C
:1000C000690400086904000869040008690400085C
:1000D000690400086904000869040008690400084C
:1000E00069040008690400086904000800000000B1
:1000F0000000000000000000000000000000000000
:0C01000000000000000000005FF808F1A3
:10010C0010B5054C237833B9044B13B10448AFF345
:10011C0000800123237010BD3C040020000000006F
:10012C00B41B000808B5034B1BB103490348AFF3DC
:10013C00008008BD0000000040040020B41B000833
:10014C0000B583B00A4B5A6942F001025A615B69EF
:10015C0003F001030193019B002211460F2000F0D4
:10016C00EFF90F2000F024FA03B05DF804FB00BF98
:10017C000010024082B00A4B9A6942F020029A6148
:10018C009A6902F020020092009A9A6942F00402E5
:10019C009A619B6903F004030193019B02B07047C1
:1001AC000010024072B6FEE700B591B02822002183
:1001BC0006A801F037FC00230193029303930493E8
:1001CC000593012206924FF4803307930A92022280
:1001DC000D920E934FF4E0130F9306A800F05CFC05
:1001EC0080B90F23019302210291002303934FF452
:1001FC0080620492059301A800F080FE20B911B032
:10020C005DF804FBFFF7CEFFFFF7CCFF08B500F05D
:10021C004DF9FFF7C9FFFFF7ADFFFFF791FF00F0B6
:10022C00A5F8084C234600221146FF2001F07EFB66
:10023C00182322460021044801F01CFA052000F086
:10024C0059F9EEE7E80400209C04002082B00E4B24
:10025C009A6942F001029A619A6902F001020092D5
:10026C00009ADA6942F08052DA61DB6903F080535C
:10027C000193019B054A536823F0E06343F08063CC
:10028C00536002B0704700BF0010024000000140F4
:10029C00FEE7FEE7FEE7FEE7FEE7704770477047B4
:1002AC0008B500F015F908BD08B5024800F02AFAA7
:1002BC0008BD00BF58040020704700000368B3F16C
:1002CC00804F00D0704710B582B0044603F504335C
:1002DC00DA6942F00102DA61DB6903F00103019390
:1002EC00019B0D480D4B036000234360836080220B
:1002FC00C2604FF4807202614FF48062426183618C
:10030C00C36100F08DF920B9034B63625C6202B0EB
:10031C0010BDFFF747FFF7E75804002058000240D4
:10032C0000B587B0002302930393049305930368ED
:10033C00B3F1804F02D007B05DF804FB03F5043332
:10034C009A6942F004029A619B6903F004030193D9
:10035C00019B0123029302230393059302A90248F4
:10036C0000F072FAE7E700BF0008014000B58FB05B
:10037C0000230A930B930C930D9308930993019309
:10038C0002930393049305930693079320484FF02D
:10039C0080420260436083605922C26003618361C2
:1003AC0000F0D6FF20BB4FF480530A930AA91848DB
:1003BC0001F0D2F8F8B9164800F0F6FFF0B90023B6
:1003CC000893099308A9124801F07AFAC8B9602376
:1003DC000193002202920392059201A90C4801F0AC
:1003EC0041F888B90A48FFF79BFF0FB05DF804FB92
:1003FC00FFF7D8FED7E7FFF7D5FEDCE7FFF7D2FE15
:10040C00DDE7FFF7CFFEE2E7FFF7CCFEEAE700BF40
:10041C009C040020FFF750FF0B480C490C4A0023AA
:10042C0002E0D458C4500433C4188C42F9D3094A9E
:10043C00094C002301E013600432A242FBD301F00B
:10044C00CDFAFFF7E3FE7047000000203C040020CB
:10045C00001C00083C0400201C050020FEE70000E6
:10046C0010B504460E4B18784FF47A73B3FBF0F3C7
:10047C000C4A1068B0FBF3F000F0A8F868B90F2C28
:10048C0001D901200AE0002221464FF0FF3000F094
:10049C0057F8054B1C60002000E0012010BD00BF88
:1004AC0004000020000000200800002008B5074AC6
:1004BC00136843F010031360032000F02FF80F2093
:1004CC00FFF7CEFFFFF7C2FE002008BD0020024060
:1004DC00034A1168034B1B780B441360704700BF31
:1004EC00E404002004000020014B1868704700BF92
:1004FC00E404002038B50446FFF7F6FF0546B4F1D6
:10050C00FF3F02D0044B1B781C44FFF7EDFF401B50
:10051C00A042FAD338BD00BF04000020074AD368BC
:10052C0023F4E0631B041B0C000200F4E0600343A3
:10053C0043F0BF6343F40033D360704700ED00E039
:10054C0000B5194BDB68C3F30223C3F1070CBCF1F4
:10055C00040F28BF4FF0040C03F1040EBEF1060F7C
:10056C0018D9033B4FF0FF3E0EFA0CFC21EA0C01AC
:10057C0099400EFA03F322EA0303194300280BDB1C
:10058C000901C9B200F1604000F5614080F8001328
:10059C005DF804FB0023E5E700F00F000901C9B288
:1005AC00024B1954F4E700BF00ED00E014ED00E03D
:1005BC00002807DB00F01F02400901239340024A88
:1005CC0042F82030704700BF00E100E00138B0F184
:1005DC00807F0BD24FF0E0235861054AF02182F85E
:1005EC0023100020986107221A6170470120704780
:1005FC0000ED00E030B40124056CAC40C56B6C60C0
:10060C00046863604368102B05D003689960036825
:10061C00DA6030BC704703689A600368D960F8E709
:10062C0060B310B402460168154B0B441548A0FB8F
:10063C0003031B099B001364134BD363022382F83F
:10064C002130086820F47F5020F030005368946803
:10065C002343D46823431469234354692343946983
:10066C002343D469234303430B600020906301238D
:10067C0082F8213082F8200010BC704701207047AE
:10068C00F8FFFDBFCDCCCCCC0000024038B5044601
:10069C0090F82000012832D0012084F8200094F832
:1006AC002100C0B2012804D0002384F8203002209D
:1006BC0038BD022084F821000020A063256828683A
:1006CC0020F0010028602046FFF794FFE36A5BB13D
:1006DC002268136843F00E0313602268136843F01A
:1006EC00010313600020E3E72268136823F004037E
:1006FC0013602268136843F00A031360EDE70220CD
:10070C00D6E7000038B5C36B1A6804682568016C1D
:10071C0004238B40134235D015F0040F32D02368DC
:10072C0013F0200F03D1236823F004032360036824
:10073C00434A934214D01432934218D01432934249
:10074C0017D01432934217D01432934217D014326C
:10075C00934202D04FF0806203E04FF4800200E03D
:10076C000422384B5A60C36A03B1984738BD402203
:10077C00F7E74FF48062F4E74FF48042F1E74FF46F
:10078C008022EEE702238B4013423CD015F0020F7F
:10079C0039D0236813F0200F06D1236823F00A0305
:1007AC002360012380F821300368254A934214D03A
:1007BC00143293421CD0143293421BD01432934205
:1007CC001BD0143293421BD01432934202D04FF000
:1007DC00007203E04FF4001200E00222194B5A6041
:1007EC00002380F82030836A002BBFD09847BDE7E8
:1007FC002022F3E74FF40072F0E74FF40052EDE7DC
:10080C004FF40032EAE7082303FA01F11142ADD0AC
:10081C0015F0080FAAD0236823F00E032360026C96
:10082C00C16B012303FA02F24A60836380F8213022
:10083C00002380F82030036B002B97D0984795E766
:10084C00080002400000024070B582B00024A446AB
:10085C00A6E0804DAA4210D007D97F4DAA420CD0F9
:10086C0005F58035AA4208D013E0A5F58015AA42FB
:10087C0003D005F57025AA4207D18A68002A58D002
:10088C00012A51D04361082403E0A5F58015AA4242
:10089C00F3D0BEF1FF0F4ED80646BEF1FF0F4CD879
:1008AC004FEA8C0233680F25954023EA050304FABE
:1008BC0002F2134333604B6813F0805F6ED0674BCA
:1008CC009A6942F001029A619B6903F0010301935A
:1008DC00019B4FEA9C02951C614B53F825600CF070
:1008EC0003039D000F23AB4026EA03065D4B9842A1
:1008FC0029D003F58063984200F08E8003F5806365
:10090C00984200F08B8003F58063984219D0042341
:10091C001AE0CC68BDE7CC680434BAE7CC6808347C
:10092C00B7E7CC680C34B4E703610824B1E70024C2
:10093C00AFE70424ADE7061DAFE7ACF10802920067
:10094C00B0E7032300E00023AB4033430232444DB5
:10095C0045F822304B6813F4801F61D0424A9368EB
:10096C0043EA0E0393604B6813F4001F5ED03E4ABB
:10097C00D36843EA0E03D3604B6813F4003F5BD09B
:10098C00394A536843EA0E0353604B6813F4803FB3
:10099C0058D0354A136843EA0E0313600CF1010C6E
:1009AC000A6832FA0CF353D0012303FA0CF302EA6F
:1009BC00030E33EA0202F1D14A68122A3FF649AF1C
:1009CC00122A3FF666AF01A555F822F087080008F9
:1009DC001F090008290900083B0900089F080008A6
:1009EC009F0800089F0800089F0800089F0800083F
:1009FC009F0800089F0800089F0800089F0800082F
:100A0C009F0800089F0800089F0800089F0800081E
:100A1C00230900082F090008012395E7022393E717
:100A2C00114A936823EA0E0393609CE70E4AD3683D
:100A3C0023EA0E03D3609FE70B4A536823EA0E03A5
:100A4C005360A2E7084A136823EA0E031360A5E774
:100A5C0002B070BD000022100000311000100240E6
:100A6C0000000140000801400004014082B0084B26
:100A7C001B68084AA2FB03235B0A00FB03F30193E8
:100A8C0000BF019B5A1E0192002BF9D102B0704796
:100A9C0000000020D34D6210002800F0F18170B5E9
:100AAC0082B00446036813F0010F2CD0994B5B689D
:100ABC0003F00C03042B1DD0964B5B6803F00C0366
:100ACC00082B12D06368B3F5803F41D0002B55D171
:100ADC0003F1804303F504331A6822F480321A6060
:100AEC001A6822F480221A6037E08A4B5B6813F490
:100AFC00803FE7D0874B1B6813F4003F03D063683B
:100B0C00002B00F0BF81236813F0020F75D0814BCE
:100B1C005B6813F00C0F5FD07E4B5B6803F00C032B
:100B2C00082B54D02369002B00F08A807A4B0122C9
:100B3C001A60FFF7D9FC0546764B1B6813F0020FC1
:100B4C0075D1FFF7D1FC401B0228F5D903209EE19B
:100B5C00704A136843F480331360636843B3FFF740
:100B6C00C3FC05466B4B1B6813F4003FCBD1FFF75E
:100B7C00BBFC401B6428F5D9032088E1B3F5A02FFA
:100B8C0009D0644B1A6822F480321A601A6822F475
:100B9C0080221A60E1E703F18043A3F53C331A6825
:100BAC0042F480221A601A6842F480321A60D4E748
:100BBC00FFF79AFC0546574B1B6813F4003FA2D075
:100BCC00FFF792FC401B6428F5D903205FE1514BE1
:100BDC005B6813F4803FA5D14E4B1B6813F0020FDA
:100BEC0003D02369012B40F04F814A4A136823F04C
:100BFC00F803616943EAC1031360236813F0080F1B
:100C0C0033D0A369002B5CD0434B0122C3F8802462
:100C1C00FFF76AFC05463F4B5B6A13F0020F21D1CC
:100C2C00FFF762FC401B0228F5D903202FE1394A5B
:100C3C00136823F0F803616943EAC1031360DCE72E
:100C4C00354B00221A60FFF74FFC0546314B1B68F1
:100C5C0013F0020FD1D0FFF747FC401B0228F5D947
:100C6C00032014E10120FFF701FF236813F0040FA8
:100C7C0000F09680274BDB6913F0805F34D1254B55
:100C8C00DA6942F08052DA61DB6903F08053019338
:100C9C00019B0125214B1B6813F4807F26D0E36850
:100CAC00012B3DD0002B53D103F1804303F50433CA
:100CBC001A6A22F001021A621A6A22F004021A62FB
:100CCC0033E0154B0022C3F88024FFF70DFC0546DA
:100CDC00104B5B6A13F0020FC7D0FFF705FC401BEB
:100CEC000228F5D90320D2E00025D3E70B4A13687C
:100CFC0043F480731360FFF7F7FB0646074B1B6842
:100D0C0013F4807FCBD1FFF7EFFB801B6428F5D960
:100D1C000320BCE000100240000042420070004082
:100D2C005F4A136A43F001031362E36833B3FFF7BE
:100D3C00DBFB06465A4B1B6A13F0020F2FD1FFF751
:100D4C00D3FB801B41F288339842F3D903209EE0F9
:100D5C00052B09D0524B1A6A22F001021A621A6A48
:100D6C0022F004021A62E0E74D4B1A6A42F00402C8
:100D7C001A621A6A42F001021A62D6E7FFF7B4FB54
:100D8C000646474B1B6A13F0020F08D0FFF7ACFB6B
:100D9C00801B41F288339842F3D9032077E0E5B900
:100DAC00E369002B72D03E4A526802F00C02082A0A
:100DBC0056D0022B17D03B4B00221A66FFF794FB40
:100DCC000446374B1B6813F0007F47D0FFF78CFBB2
:100DDC00001B0228F5D9032059E0314AD36923F0CE
:100DEC008053D361DCE72F4B00221A66FFF77CFBA4
:100DFC0005462B4B1B6813F0007F06D0FFF774FBE6
:100E0C00401B0228F5D9032041E0236AB3F5803F4B
:100E1C001AD023494B6823F47413226A606A024384
:100E2C0013434B601F4B01221A66FFF75DFB044610
:100E3C001B4B1B6813F0007F0ED1FFF755FB001BFB
:100E4C000228F5D9032022E0154A536823F4003315
:100E5C00A1680B435360DCE7002018E0002016E08B
:100E6C00012B16D00E4B5B6803F48031226A914241
:100E7C0011D103F47013626A93420ED1002006E084
:100E8C0001207047012002E0012000E0002002B0A8
:100E9C0070BD0120FBE70120F9E70120F7E700BF57
:100EAC0000100240000042420F4B5B6803F00C0242
:100EBC00082A01D00D487047C3F383420C49885C63
:100ECC0013F4803F0BD0084B5B68C3F34043094AD3
:100EDC00D35C064A02FB00F0B0FBF3F07047064B04
:100EEC0003FB00F0704700BF0010024000127A00B4
:100EFC00DC1B0008EC1B000800093D00002800F07A
:100F0C00A08070B50D460446524B1B6803F00703D6
:100F1C008B420BD24F4A136823F007030B43136029
:100F2C00136803F007038B4240F08D80236813F0A5
:100F3C00020F17D013F0040F04D0474A536843F440
:100F4C00E0635360236813F0080F04D0424A5368DF
:100F5C0043F460535360404A536823F0F003A16894
:100F6C000B435360236813F0010F31D06368012BDE
:100F7C0020D0022B25D0384A126812F0020F64D010
:100F8C0035494A6822F0030213434B60FFF7ACFA71
:100F9C000646314B5B6803F00C036268B3EB820FBF
:100FAC0016D0FFF7A1FA801B41F288339842F0D992
:100FBC00032045E0284A126812F4003FE0D10120DA
:100FCC003EE0254A126812F0007FD9D1012037E0AB
:100FDC00204B1B6803F00703AB420AD91D4A136868
:100FEC0023F007032B431360136803F00703AB4292
:100FFC002DD1236813F0040F06D0174A536823F43D
:10100C00E063E1680B435360236813F0080F07D0CB
:10101C00114A536823F46053216943EAC1035360B6
:10102C00FFF742FF0C4B5B68C3F303130B4AD35C13
:10103C00D8400B4B18600B4B1868FFF711FA0020C7
:10104C0070BD012070470120FAE70120F8E701206C
:10105C00F6E700BF0020024000100240CC1B000845
:10106C00000000200800002070B4036A026A22F01D
:10107C00010202624668826922F073020C6844EA3B
:10108C00020523F002028B6813430D4CA04209D0D9
:10109C000B4CA0420DD0466085614A6842630362E6
:1010AC0070BC704723F00803CA68134323F0040391
:1010BC00EEE726F440764A6932438E691643EAE736
:1010CC00002C014030B4036A026A22F4807202627E
:1010DC004568C26922F073020C68224323F4007342
:1010EC008C6843EA04230F4CA04209D00D4CA0425B
:1010FC000ED04560C2614A68C263036230BC70475F
:10110C0023F40063CC6843EA042323F48063EDE703
:10111C0025F440554C6945EA04158C6945EA0415DB
:10112C00E7E700BF002C014030B4036A026A22F4E6
:10113C00805202624468C26922F4E6420D6842EAB7
:10114C00052223F400538D6843EA0533074DA8426A
:10115C0006D04460C2614A680264036230BC7047C6
:10116C0024F480444D6944EA8514F2E7002C0140D4
:10117C0010B4036A046A24F001040462846924F044
:10118C00F00C4CEA021223F00A030B438261036257
:10119C0010BC704710B4036A046A24F01004046293
:1011AC00846924F4704C4CEA023223F0A00343EA25
:1011BC0001138261036210BC7047836823F07003D3
:1011CC000B4343F0070383607047704710B5446AC4
:1011DC00636A83420ED0A36A834214D0E36A8342CB
:1011EC001AD0236B834220D0204600F0F6FB00235C
:1011FC00237710BD012323778369002BF4D10123BE
:10120C0084F83E30F0E7022323778369002BEBD17F
:10121C00012384F83F30E7E7042323778369002B0D
:10122C00E2D1012384F84030DEE708232377836979
:10123C00002BD9D1012384F84130D5E7704710B584
:10124C00446A636A83420BD0A36A834210D0E36A78
:10125C00834210D0236B834204D10823237701E00F
:10126C00012323772046FFF7E9FF0023237710BDE6
:10127C0002232377F6E704232377F3E7704710B5AF
:10128C00446A636A83420CD0A36A834213D0E36A34
:10129C00834216D0236B834219D0012384F83D304E
:1012AC0003E00123237784F83E302046FFF7E6FF66
:1012BC000023237710BD02232377012384F83F30CA
:1012CC00F3E704232377012384F84030EDE7082368
:1012DC002377012384F84130E7E7000003681B4AB9
:1012EC0090420AD0B0F1804F07D0A2F594329042D0
:1012FC0003D002F58062904203D123F070034A6858
:10130C001343124A90420AD0B0F1804F07D0A2F595
:10131C009432904203D002F58062904203D123F4C0
:10132C004073CA68134323F080034A691343036074
:10133C008B68C3620B688362044B984202D0012312
:10134C00436170470B690363F9E700BF002C014050
:10135C0040B310B5044690F83D30F3B1022384F845
:10136C003D30214651F8040BFFF7B8FF012384F8F8
:10137C00463084F83E3084F83F3084F8403084F8AE
:10138C00413084F8423084F8433084F8443084F897
:10139C00453084F83D30002010BD80F83C30FEF71D
:1013AC008DFFDBE70120704740B310B5044690F881
:1013BC003D30F3B1022384F83D30214651F8040B43
:1013CC00FFF78CFF012384F8463084F83E3084F814
:1013DC003F3084F8403084F8413084F8423084F84F
:1013EC00433084F8443084F8453084F83D30002094
:1013FC0010BD80F83C30FFF7E8FEDBE701207047BA
:10140C0030B4036A026A22F01002026244688269F4
:10141C0022F4E6420D6842EA052223F020038D688F
:10142C0043EA05130E4DA84209D00D4DA8420ED02B
:10143C00446082614A688263036230BC704723F067
:10144C008003CD6843EA051323F04003EDE724F451
:10145C0040644D6944EA85048D6944EA8504E7E7F4
:10146C00002C014038B590F83C30012B66D0044676
:10147C000D46012380F83C300C2A5AD8DFE802F0E4
:10148C00075959591B595959305959594400006831
:10149C00FFF7EAFD2268936943F008039361226821
:1014AC00936923F0040393612268936929690B43C0
:1014BC00936100203EE00068FFF7A2FF2268936969
:1014CC0043F4006393612268936923F4806393610E
:1014DC0022689369296943EA01239361002029E07A
:1014EC000068FFF7EFFD2268D36943F00803D3616E
:1014FC002268D36923F00403D3612268D369296974
:10150C000B43D361002015E00068FFF70DFE226845
:10151C00D36943F40063D3612268D36923F48063F5
:10152C00D3612268D369296943EA0123D36100207E
:10153C0000E00120002384F83C3038BD0220FCE799
:10154C0010B4846824F47F4C42EA03220A4342EA32
:10155C000C02826010BC704790F83C30012B78D0A4
:10156C0010B50446012380F83C30022380F83D304E
:10157C000268936823F47F4323F0770393600B682E
:10158C00602B4CD029D8402B54D00CD9502B22D1C5
:10159C00CA6849680068FFF7EBFD50212068FFF727
:1015AC000CFE002005E0202B0DD009D9302B0AD0E1
:1015BC000120012384F83D30002384F83C3010BD19
:1015CC000BB1102B05D119462068FFF7F6FD002052
:1015DC00EFE70120EDE70120EBE7B3F5805F34D0B6
:1015EC00B3F5005F0CD1CB684A6889680068FFF7D7
:1015FC00A7FF2268936843F4804393600020D8E7E8
:10160C00702B24D1CB684A6889680068FFF798FF73
:10161C002268936843F0770393600020C9E7CA6897
:10162C0049680068FFF7B6FD60212068FFF7C5FD2B
:10163C000020BEE7CA6849680068FFF799FD4021A1
:10164C002068FFF7BAFD0020B3E70020B1E70120C6
:10165C00AFE70220704701F01F01012303FA01FCE0
:10166C00036A23EA0C030362036A02FA01F10B43D7
:10167C000362704770B5044616460D46002932D1F8
:10168C0090F83E00C0B2022814BF002001200028B0
:10169C0040F0FA80002D42D194F83E20D2B2012ABB
:1016AC0014BF00220122002A00F0F080002E00F06E
:1016BC00EF80002B00F0EE80002D4CD1022284F83C
:1016CC003E200C2D00F2E880DFE815F05500E60016
:1016DC00E600E6008A00E600E600E600A100E6006F
:1016EC00E600E600B800042909D008290FD090F8CC
:1016FC004100C0B2022814BF00200120C7E790F8B7
:10170C003F00C0B2022814BF00200120BFE790F8B0
:10171C004000C0B2022814BF00200120B7E7042DFE
:10172C0009D0082D0FD094F84120D2B2012A14BF51
:10173C0000220122B7E794F83F20D2B2012A14BF4D
:10174C0000220122AFE794F84020D2B2012A14BF44
:10175C0000220122A7E7042D05D0082D07D0022274
:10176C0084F84120ADE7022284F83F20A9E7022249
:10177C0084F84020A5E7626A4D499162626A4D493E
:10178C00D162626A4C491163226834323146606A14
:10179C00FEF77CFF002840F081802268D36843F478
:1017AC000073D360012229462068FFF754FF236899
:1017BC00424A934258D02368404A934259D0B3F1DD
:1017CC00804F56D0A2F59432934252D002F58062EB
:1017DC0093424ED01A6842F001021A60002056E083
:1017EC00A26A33499162A26A3249D162A26A324931
:1017FC001163226838323146A06AFEF747FF002891
:10180C004ED12268D36843F48063D360CAE7E26A9E
:10181C0027499162E26A2749D162E26A264911633B
:10182C0022683C323146E06AFEF730FF002839D19D
:10183C002268D36843F40063D360B3E7226B1C497E
:10184C009162226B1B49D162226B1B491163226886
:10185C0040323146206BFEF719FF28BB2268D36853
:10186C0043F48053D3609DE75A6C42F400425A64AF
:10187C00A1E79A6802F00702062A17D01A6842F00C
:10188C0001021A60002002E0022000E0012070BD7D
:10189C000120FCE70120FAE70120F8E70120F6E738
:1018AC000120F4E70120F2E70120F0E70020EEE749
:1018BC00D91100084B1200088B120008002C0140B3
:1018CC0090F83C30012B2CD010B4012380F83C3024
:1018DC00022380F83D3003685A689C6822F0700C33
:1018EC000A6842EA0C025A6003680F4A93420AD013
:1018FC00B3F1804F07D0A2F59432934203D002F596
:10190C008062934204D124F080044A6814439C60A2
:10191C00012380F83D30002380F83C30184610BC81
:10192C0070470220704700BF002C01404FF0000CA4
:10193C00BCF1070F39DC00B50AE04FF03C0E23F880
:10194C001CE04900C9B20CF1010CBCF1070F0CDC16
:10195C0011F0800FF1D14FF01E0EF0E73C2123F86F
:10196C001C104000C0B20CF1010CBCF10F0F0BDCD1
:10197C0010F0800FF2D11E21F1E73C2123F81C104E
:10198C005200D2B20CF1010CBCF1170F04DC12F0B6
:10199C00800FF2D11E21F1E75DF804FB3C2123F806
:1019AC001C104000C0B20CF1010CBCF10F0F0BDC91
:1019BC0010F0800FF2D11E21F1E73C2123F81C100E
:1019CC005200D2B20CF1010CBCF1170F04DC12F076
:1019DC00800FF2D11E21F1E77047704770B50D4EA4
:1019EC000D4D761BB61006D0002455F8043B01347F
:1019FC009847A642F9D1094E094D00F0D5F8761B4F
:101A0C00B61006D0002455F8043B01349847A64282
:101A1C00F9D170BDF41B0008F41B0008FC1B000876
:101A2C00F41B0008830730B548D0541E002A3FD061
:101A3C000346CAB201E0013C3AD303F8012B9D07DF
:101A4C00F9D1032C2DD9CDB245EA05250F2C45EA49
:101A5C00054536D9A4F1100222F00F0C03F1200E2B
:101A6C00E6444FEA121C03F1100242E9045542E924
:101A7C00025510327245F8D10CF1010214F00C0F22
:101A8C0003EB021204F00F0C13D0ACF1040323F09F
:101A9C0003030433134442F8045B9342FBD10CF070
:101AAC0003042CB1CAB21C4403F8012B9C42FBD199
:101ABC0030BD64461346002CF4D1F9E703461446B6
:101ACC00BFE71A46A446E0E7024B13B1024800F008
:101ADC0005B8704700000000F51A00080023014605
:101AEC001A46184600F01AB838B5084B084D5B1B5F
:101AFC009C1007D0043B1D44013C55F80439984711
:101B0C00002CF9D1BDE8384000F054B8001C000896
:101B1C00FC1B0008704700BF704700BF2DE9F04761
:101B2C00DFF87CA00646DAF8000098460F4691468E
:101B3C00FFF7F0FF1B4B1B68D3F8484124B36568D3
:101B4C001F2D26DC5EB96B1C0235DAF800006360D1
:101B5C0044F82570FFF7E0FF0020BDE8F087012373
:101B6C0004EB8501C1F88890D4F88821AB401A4366
:101B7C00022EC4F88821C1F80881E4D1D4F88C2154
:101B8C001343C4F88C31DEE703F5A674C3F848415F
:101B9C00D5E7DAF80000FFF7BFFF4FF0FF30DCE7C6
:101BAC0038040020F01B0008F8B500BFF8BC08BCD6
:101BBC009E467047F8B500BFF8BC08BC9E467047FF
:101BCC0000000000000000000102030406070809E1
:101BDC0002030405060708090A0B0C0D0E0F101062
:081BEC000102000010000020BE
:081BF400D51A000831010008B8
:041BFC000D010008CF
:101C00000024F400010000001000000000000000AB
:101C100000000000FC02002064030020CC03002030
:101C200000000000000000000000000000000000B4
:101C300000000000000000000000000000000000A4
:101C40000000000000000000000000000000000094
:101C50000000000000000000000000000000000084
:101C60000000000000000000000000000000000074
:101C70000000000000000000000000000000000064
:101C80000000000000000000000000000000000054
:101C90000000000000000000000000000000000044
:101CA0000000000000000000000000000000000034
:101CB0000000000000000000010000000000000023
:101CC0000E33CDAB34126DE6ECDE05000B000000E8
:101CD0000000000000000000000000000000000004
:101CE00000000000000000000000000000000000F4
:101CF00000000000000000000000000000000000E4
:101D000000000000000000000000000000000000D3
:0C20300000000000000000001805002067
:0400000508000421CA
:00000001FF
