:020000040800F2
:100000000050002085040008F9020008FB020008E7
:10001000FD020008FF0200080103000800000000C4
:1000200000000000000000000000000003030008C2
:10003000050300080000000007030008090300088A
:10004000CD040008CD040008CD040008CD0400084C
:10005000CD040008CD040008CD040008CD0400083C
:10006000CD040008CD040008CD040008CD0400082C
:10007000CD040008CD040008CD040008CD0400081C
:10008000CD04000811030008CD040008CD040008C9
:10009000CD040008CD040008CD040008CD040008FC
:1000A000CD040008CD040008CD040008CD040008EC
:1000B000CD040008CD040008CD040008CD040008DC
:1000C000CD040008CD040008CD040008CD040008CC
:1000D000CD040008CD040008CD040008CD040008BC
:1000E000CD040008CD040008CD0400080000000085
:1000F0000000000000000000000000000000000000
:0C01000000000000000000005FF808F1A3
:10010C000348044B834202D0034B03B1184770479A
:10011C002800002028000020000000000548064BA5
:10012C001B1AD90F01EBA301491002D0034B03B1E9
:10013C00184770472800002028000020000000000D
:10014C0010B5064C237843B9FFF7DAFF044B13B113
:10015C000448AFF300800123237010BD2800002059
:10016C0000000000C81C000808B5054B1BB1054970
:10017C000548AFF30080BDE80840FFF7CFBF00BFD4
:10018C00000000002C000020C81C000800B583B043
:10019C000A4B5A6942F001025A615B6903F0010390
:1001AC000193019B00221146112000F02FFA11201F
:1001BC0000F03CFA03B05DF804FB00BF00100240F5
:1001CC0082B00A4B9A6942F020029A619A6902F055
:1001DC0020020092009A9A6942F004029A619B698B
:1001EC0003F004030193019B02B07047001002401E
:1001FC0072B6FEE700B591B02822002106A801F0E6
:10020C007DFC002301930293039304930593012235
:10021C0006924FF4803307930A9202220D920E93AA
:10022C004FF4E0130F9306A800F070FC80B90F2375
:10023C00019302210291002303934FF480620492F4
:10024C00059301A800F094FE20B911B05DF804FBF1
:10025C00FFF7CEFFFFF7CCFF08B500F059F9FFF719
:10026C00C9FFFFF7ADFFFFF791FF00F0AFF80C48A7
:10027C0001F0F0FBC82000F06FF9094C4FF4C0639B
:10028C0022460421074801F023FA4FF47A7000F05B
:10029C0063F901F0FFFB204601F0DCFBEDE700BF4A
:1002AC00D40000208800002082B00E4B9A6942F0E6
:1002BC0001029A619A6902F001020092009ADA69CD
:1002CC0042F08052DA61DB6903F080530193019BA9
:1002DC00054A536823F0E06343F00073536002B0A7
:1002EC00704700BF0010024000000140FEE7FEE72F
:1002FC00FEE7FEE7FEE770477047704708B500F071
:10030C0019F908BD08B5024800F03AFA08BD00BF5B
:10031C0044000020704700000368B3F1804F00D008
:10032C00704710B582B0044603F50433DA6942F025
:10033C000102DA61DB6903F001030193019B0F48B1
:10034C000F4B036010234360002383608022C26044
:10035C004FF4007202614FF40062426183614FF40A
:10036C008053C36100F09AF928B9044BA3625C6214
:10037C00236302B010BDFFF73BFFF6E744000020FB
:10038C008000024000B587B00023029303930493CE
:10039C0005930368B3F1804F02D007B05DF804FBFE
:1003AC0003F504339A6942F004029A619B6903F0E5
:1003BC0004030193019B022302930393059302A967
:1003CC00014800F07FFAE8E70008014000B58FB063
:1003DC0000230A930B930C930D93089309930193A9
:1003EC0002930393049305930693079321484FF0CC
:1003FC0080420260436083605922C2600361836162
:10040C0000F0D8FF30BB4FF480530A930AA9194867
:10041C0001F0D0F808BB174800F0F8FF00BB002330
:10042C000893099308A9134801F088FAD8B96023F6
:10043C000193002302930393059304220DEB020115
:10044C000C4801F03DF888B90A48FFF79BFF0FB044
:10045C005DF804FBFFF7CCFED5E7FFF7C9FEDAE742
:10046C00FFF7C6FEDBE7FFF7C3FEE0E7FFF7C0FED2
:10047C00EAE700BF88000020FFF74CFF0B480C494F
:10048C000C4A002302E0D458C4500433C4188C42E4
:10049C00F9D3094A094C002301E013600432A2424B
:1004AC00FBD301F07BFBFFF7D7FE70470000002069
:1004BC0028000020101D0008280000206C1A0020C5
:1004CC00FEE7000010B504460E4B1A784FF47A7311
:1004DC00B3FBF2F30C4A1068B0FBF3F000F0B4F885
:1004EC0068B90F2C01D901200AE0002221464FF0F7
:1004FC00FF3000F08BF8054B1C60002000E0012061
:10050C0010BD00BF040000200000002008000020E7
:10051C0008B5074A136843F010031360032000F07A
:10052C0063F80F20FFF7CEFFFFF7BEFE002008BDDB
:10053C0000200240034A1168034B1B780B441360E4
:10054C00704700BFD000002004000020014B186849
:10055C00704700BFD000002038B50446FFF7F6FF07
:10056C000546B4F1FF3F02D0044B1B781C44FFF747
:10057C00EDFF401BA042FAD338BD00BF04000020A1
:10058C00002808DB0901C9B200F1604000F56140A8
:10059C0080F80013704700F00F000901C9B2014B3D
:1005AC001954704714ED00E000B500F00700C0F1DD
:1005BC00070CBCF1040F28BF4FF0040C031D062BD5
:1005CC000FD9C31E4FF0FF3E0EFA0CF021EA0001CA
:1005DC0099400EFA03FE22EA0E0241EA02005DF88F
:1005EC0004FB0023EEE70000074AD36823F4E06322
:1005FC001B041B0C000200F4E060034343F0BF63D8
:10060C0043F40033D360704700ED00E010B50446AE
:10061C00054BD868C0F30220FFF7C6FF0146204601
:10062C00FFF7AEFF10BD00BF00ED00E0002807DBB8
:10063C0000F01F02400901239340024A42F8203087
:10064C00704700BF00E100E00138B0F1807F0BD2B1
:10065C004FF0E0235861054AF02182F82310002066
:10066C00986107221A6170470120704700ED00E085
:10067C0030B40124056CAC40C56B6C6004686360DD
:10068C004368102B05D0036899600368DA6030BCAE
:10069C00704703689A600368D960F8E760B310B4D8
:1006AC0002460168154B0B441548A0FB03031B09BC
:1006BC009B001364134BD363022382F82130086828
:1006CC0020F47F5020F03000536894682343D468A2
:1006DC002343146923435469234394692343D46902
:1006EC00234303430B6000209063012382F82130E5
:1006FC0082F8200010BC704701207047F8FFFDBF46
:10070C00CDCCCCCC0000024038B5044690F820008B
:10071C00012832D0012084F8200094F82100C0B2C6
:10072C00012804D0002384F82030022038BD022098
:10073C0084F821000020A0632568286820F00100BF
:10074C0028602046FFF794FFE36A5BB122681368C8
:10075C0043F00E0313602268136843F00103136027
:10076C000020E3E72268136823F004031360226877
:10077C00136843F00A031360EDE70220D6E700008C
:10078C0038B5C36B1A6804682568016C04238B4068
:10079C00134235D015F0040F32D0236813F0200F1C
:1007AC0003D1236823F0040323600368434A934274
:1007BC0014D01432934218D01432934217D01432FE
:1007CC00934217D01432934217D01432934202D072
:1007DC004FF0806203E04FF4800200E00422384BBB
:1007EC005A60C36A03B1984738BD4022F7E74FF40B
:1007FC008062F4E74FF48042F1E74FF48022EEE799
:10080C0002238B4013423CD015F0020F39D02368E1
:10081C0013F0200F06D1236823F00A032360012371
:10082C0080F821300368254A934214D01432934245
:10083C001CD0143293421BD0143293421BD014326E
:10084C0093421BD01432934202D04FF0007203E05B
:10085C004FF4001200E00222194B5A60002380F87A
:10086C002030836A002BBFD09847BDE72022F3E7E6
:10087C004FF40072F0E74FF40052EDE74FF4003202
:10088C00EAE708238B401342AED015F0080FABD02B
:10089C00236823F00E032360026CC16B012303FA5F
:1008AC0002F24A60836380F82130002380F8203004
:1008BC00036B002B98D0984796E700BF08000240C6
:1008CC000000024070B582B00024A446A2E07E4D28
:1008DC00AB4210D007D97D4DAB420CD005F580351D
:1008EC00AB4208D013E0A5F58015AB4203D005F55B
:1008FC007025AB4207D18B68002B55D0012B4ED005
:10090C004261082403E0A5F58015AB42F3D0BEF19B
:10091C00FF0F4BD806464FEA8C0233680F259540E3
:10092C0023EA050304FA02F2134333604B6813F015
:10093C00805F6DD0664B9A6942F001029A619B69A7
:10094C0003F001030193019B4FEA9C02951C614B40
:10095C0053F825600CF00305AD000F23AB4026EADD
:10096C0003065D4B984228D003F58063984200F053
:10097C008D8003F58063984200F08A8003F58063D4
:10098C00984218D0042319E0CC68C0E7CC68043432
:10099C00BDE7CC680834BAE7CC680C34B7E7026121
:1009AC000824B4E70024B2E70424B0E7061DACF138
:1009BC0008029200B1E7032300E00023AB4033436D
:1009CC000232444D45F822304B6813F4801F61D03D
:1009DC00424A936843EA0E0393604B6813F4001F7A
:1009EC005ED03E4AD36843EA0E03D3604B6813F4DF
:1009FC00003F5BD0394A536843EA0E0353604B689F
:100A0C0013F4803F58D0354A136843EA0E03136041
:100A1C000CF1010C0B6833FA0CF253D0012202FAE0
:100A2C000CF203EA020E32EA0303F1D14B68122BEB
:100A3C003FF64DAF122B3FF66AAF01A555F823F0E8
:100A4C0003090008950900089F090008B10900086E
:100A5C001B0900081B0900081B0900081B090008DA
:100A6C001B0900081B0900081B0900081B090008CA
:100A7C001B0900081B0900081B0900081B090008BA
:100A8C001B09000899090008A5090008012395E72E
:100A9C00022393E7114A936823EA0E0393609CE7C1
:100AAC000E4AD36823EA0E03D3609FE70B4A5368C0
:100ABC0023EA0E035360A2E7084A136823EA0E03E5
:100ACC001360A5E702B070BD0000221000003110C9
:100ADC0000100240000001400008014000040140E9
:100AEC0082B0084B1B68084AA2FB03235B0A00FB7D
:100AFC0003F3019300BF019B5A1E0192002BF9D105
:100B0C0002B0704700000020D34D6210002800F0A6
:100B1C00F18170B582B00446036813F0010F2CD03C
:100B2C00994B5B6803F00C03042B1DD0964B5B6850
:100B3C0003F00C03082B12D06368B3F5803F41D04F
:100B4C00002B55D103F1804303F504331A6822F4CA
:100B5C0080321A601A6822F480221A6037E08A4BBD
:100B6C005B6813F4803FE7D0874B1B6813F4003F9E
:100B7C0003D06368002B00F0BF81236813F0020FD1
:100B8C0075D0814B5B6813F00C0F5FD07E4B5B68AC
:100B9C0003F00C03082B54D02369002B00F08A803F
:100BAC007A4B01221A60FFF7D1FC0546764B1B6885
:100BBC0013F0020F75D1FFF7C9FC401B0228F5D9C1
:100BCC0003209EE1704A136843F48033136063681A
:100BDC0043B3FFF7BBFC05466B4B1B6813F4003F9C
:100BEC00CBD1FFF7B3FC401B6428F5D9032088E177
:100BFC00B3F5A02F09D0644B1A6822F480321A6026
:100C0C001A6822F480221A60E1E703F18043A3F50D
:100C1C003C331A6842F480221A601A6842F480321B
:100C2C001A60D4E7FFF792FC0546574B1B6813F488
:100C3C00003FA2D0FFF78AFC401B6428F5D90320A3
:100C4C005FE1514B5B6813F4803FA5D14E4B1B68A1
:100C5C0013F0020F03D02369012B40F04F814A4A55
:100C6C00136823F0F803616943EAC1031360236836
:100C7C0013F0080F33D0A369002B5CD0434B012237
:100C8C00C3F88024FFF762FC05463F4B5B6A13F008
:100C9C00020F21D1FFF75AFC401B0228F5D9032083
:100CAC002FE1394A136823F0F803616943EAC10361
:100CBC001360DCE7354B00221A60FFF747FC054652
:100CCC00314B1B6813F0020FD1D0FFF73FFC401BD8
:100CDC000228F5D9032014E10120FFF701FF236856
:100CEC0013F0040F00F09680274BDB6913F0805F44
:100CFC0034D1254BDA6942F08052DA61DB6903F0BA
:100D0C0080530193019B0125214B1B6813F4807FB9
:100D1C0026D0E368012B3DD0002B53D103F1804347
:100D2C0003F504331A6A22F001021A621A6A22F0DD
:100D3C0004021A6233E0154B0022C3F88024FFF73B
:100D4C0005FC0546104B5B6A13F0020FC7D0FFF78A
:100D5C00FDFB401B0228F5D90320D2E00025D3E788
:100D6C000B4A136843F480731360FFF7EFFB0646DE
:100D7C00074B1B6813F4807FCBD1FFF7E7FB801B7D
:100D8C006428F5D90320BCE0001002400000424268
:100D9C00007000405F4A136A43F001031362E3687A
:100DAC0033B3FFF7D3FB06465A4B1B6A13F0020F03
:100DBC002FD1FFF7CBFB801B41F288339842F3D93C
:100DCC0003209EE0052B09D0524B1A6A22F0010237
:100DDC001A621A6A22F004021A62E0E74D4B1A6A90
:100DEC0042F004021A621A6A42F001021A62D6E751
:100DFC00FFF7ACFB0646474B1B6A13F0020F08D0FB
:100E0C00FFF7A4FB801B41F288339842F3D90320EF
:100E1C0077E0E5B9E369002B72D03E4A526802F0E4
:100E2C000C02082A56D0022B17D03B4B00221A6614
:100E3C00FFF78CFB0446374B1B6813F0007F47D041
:100E4C00FFF784FB001B0228F5D9032059E0314A37
:100E5C00D36923F08053D361DCE72F4B00221A6651
:100E6C00FFF774FB05462B4B1B6813F0007F06D075
:100E7C00FFF76CFB401B0228F5D9032041E0236AE5
:100E8C00B3F5803F1AD023494B6823F47413226ABC
:100E9C00606A024313434B601F4B01221A66FFF733
:100EAC0055FB04461B4B1B6813F0007F0ED1FFF75C
:100EBC004DFB001B0228F5D9032022E0154A53688C
:100ECC0023F40033A1680B435360DCE7002018E0E7
:100EDC00002016E0012B16D00E4B5B6803F480311A
:100EEC00226A914211D103F47013626A93420ED1BB
:100EFC00002006E001207047012002E0012000E004
:100F0C00002002B070BD0120FBE70120F9E70120B1
:100F1C00F7E700BF00100240000042420F4B5B6835
:100F2C0003F00C02082A01D00D487047C3F383422A
:100F3C000C49885C13F4803F0BD0084B5B68C3F3FF
:100F4C004043094AD35C064A02FB00F0B0FBF3F0C5
:100F5C007047064B03FB00F0704700BF00100240C7
:100F6C0000127A00F41C0008F01C000800093D0077
:100F7C00002800F0A08070B50D460446524B1B684B
:100F8C0003F007038B420BD24F4A136823F007037D
:100F9C000B431360136803F007038B4240F08D8002
:100FAC00236813F0020F17D013F0040F04D0474A34
:100FBC00536843F4E0635360236813F0080F04D0C4
:100FCC00424A536843F460535360404A536823F0D9
:100FDC00F003A1680B435360236813F0010F31D069
:100FEC006368012B20D0022B25D0384A126812F0EE
:100FFC00020F64D035494A6822F0030213434B6058
:10100C00FFF7A4FA0646314B5B6803F00C036268E9
:10101C00B3EB820F16D0FFF799FA801B41F288339D
:10102C009842F0D9032045E0284A126812F4003F98
:10103C00E0D101203EE0254A126812F0007FD9D1A0
:10104C00012037E0204B1B6803F00703AB420AD9A1
:10105C001D4A136823F007032B431360136803F036
:10106C000703AB422DD1236813F0040F06D0174AA7
:10107C00536823F4E063E1680B435360236813F077
:10108C00080F07D0114A536823F46053216943EACF
:10109C00C1035360FFF742FF0C4B5B68C3F30313B0
:1010AC000B4AD35CD8400B4B18600B4B1868FFF7FE
:1010BC0009FA002070BD012070470120FAE70120D9
:1010CC00F8E70120F6E700BF0020024000100240C4
:1010DC00E01C0008000000200800002030B4026A68
:1010EC00036A23F0010303624568836923F07303E9
:1010FC000C681C4322F002028B6813430B4A90428B
:10110C0006D0456084614A684263036230BC704714
:10111C0023F00803CA681A4322F0040325F440752F
:10112C004A692A438D691543EBE700BF002C014047
:10113C0030B4036A026A22F4807202624468C269A3
:10114C0022F073020D68154323F400738A6843EA96
:10115C0002230D4A904206D04460C5614A68C263BE
:10116C00036230BC704723F40063CA6843EA02236D
:10117C0023F4806324F440544A6944EA02148A69D3
:10118C0044EA0214E8E700BF002C014030B4036AC3
:10119C00026A22F4805202624468C26922F4E64276
:1011AC000D6842EA052223F400538D6843EA0533A7
:1011BC00074DA84206D04460C2614A6802640362CB
:1011CC0030BC704724F480444D6944EA8514F2E73E
:1011DC00002C014010B4036A046A24F00104046278
:1011EC00846924F0F00C4CEA021223F00A030B433E
:1011FC008261036210BC704710B4036A046A24F065
:10120C0010040462846924F4704C4CEA023223F01A
:10121C00A00343EA01138261036210BC7047836828
:10122C0023F070030B4343F0070383607047704750
:10123C0010B5446A636A83420ED0A36A834214D009
:10124C00E36A83421AD0236B834220D0204600F0FD
:10125C004DFC0023237710BD012323778369002BDA
:10126C00F4D1012384F83E30F0E70223237783691D
:10127C00002BEBD1012384F83F30E7E704232377DD
:10128C008369002BE2D1012384F84030DEE7082388
:10129C0023778369002BD9D1012384F84130D5E71A
:1012AC00704710B5446A636A83420BD0A36A8342C9
:1012BC0010D0E36A834210D0236B834204D10823FD
:1012CC00237701E0012323772046FFF7E9FF002372
:1012DC00237710BD02232377F6E704232377F3E764
:1012EC00704710B5446A636A83420CD0A36A834288
:1012FC0013D0E36A834216D0236B834219D00123A7
:10130C0084F83D3003E00123237784F83E302046F7
:10131C00FFF7E6FF0023237710BD02232377012379
:10132C0084F83F30F3E704232377012384F840301B
:10133C00EDE708232377012384F84130E7E7000029
:10134C0003681B4A90420AD0B0F1804F07D0A2F537
:10135C009432904203D002F58062904203D123F084
:10136C0070034A681343124A90420AD0B0F1804F7E
:10137C0007D0A2F59432904203D002F580629042DD
:10138C0003D123F44073CA68134323F080034A69E2
:10139C00134303608B68C3620B688362044B9842EF
:1013AC0002D00123436170470B690363F9E700BF67
:1013BC00002C014040B310B5044690F83D30F3B119
:1013CC00022384F83D30214651F8040BFFF7B8FF97
:1013DC00012384F8463084F83E3084F83F3084F89A
:1013EC00403084F8413084F8423084F8433084F83B
:1013FC00443084F8453084F83D30002010BD80F82E
:10140C003C30FEF789FFDBE70120704740B310B595
:10141C00044690F83D30F3B1022384F83D30214668
:10142C0051F8040BFFF78CFF012384F8463084F845
:10143C003E3084F83F3084F8403084F8413084F8F2
:10144C00423084F8433084F8443084F8453084F8D2
:10145C003D30002010BD80F83C30FFF7E8FEDBE7A4
:10146C000120704730B4036A026A22F01002026253
:10147C004468826922F4E6420D6842EA052223F0B0
:10148C0020038D6843EA05130C4DA84206D0446036
:10149C0082614A688263036230BC704723F0800328
:1014AC00CD6843EA051323F0400324F440644D69EE
:1014BC0044EA85048D6944EA8504E8E7002C014080
:1014CC0038B590F83C30012B66D004460D4601230C
:1014DC0080F83C300C2A5AD8DFE802F007595959E9
:1014EC001B5959593059595944000068FFF7F6FDFA
:1014FC002268936943F0080393612268936923F08F
:10150C00040393612268936929690B43936100205A
:10151C003EE00068FFF7A6FF2268936943F400637E
:10152C0093612268936923F48063936122689369C1
:10153C00296943EA01239361002029E00068FFF741
:10154C00F7FD2268D36943F00803D3612268D3699D
:10155C0023F00403D3612268D36929690B43D36157
:10156C00002015E00068FFF711FE2268D36943F4F0
:10157C000063D3612268D36923F48063D36122684A
:10158C00D369296943EA0123D361002000E00120DB
:10159C00002384F83C3038BD0220FCE710B484688A
:1015AC0024F47F4C42EA03220A4342EA0C02826092
:1015BC0010BC704790F83C30012B78D010B5044625
:1015CC00012380F83C30022380F83D300268936898
:1015DC0023F47F4323F0770393600B68602B4CD08C
:1015EC0029D8402B54D00CD9502B22D1CA68496829
:1015FC000068FFF7EFFD50212068FFF710FE002078
:10160C0005E0202B0DD009D9302B0AD00120012365
:10161C0084F83D30002384F83C3010BD0BB1102B06
:10162C0005D119462068FFF7FAFD0020EFE70120ED
:10163C00EDE70120EBE7B3F5805F34D0B3F5005F45
:10164C000CD1CB684A6889680068FFF7A7FF22684D
:10165C00936843F4804393600020D8E7702B24D127
:10166C00CB684A6889680068FFF798FF226893681E
:10167C0043F0770393600020C9E7CA6849680068A3
:10168C00FFF7BAFD60212068FFF7C9FD0020BEE717
:10169C00CA6849680068FFF79DFD40212068FFF784
:1016AC00BEFD0020B3E70020B1E70120AFE7022028
:1016BC00704701F01F014FF0010C0CFA01FC036A9A
:1016CC0023EA0C030362036A8A40134303627047E4
:1016DC0070B5044616460D4600295AD190F83E00C6
:1016EC00C0B2022814BF00200120002840F00A815B
:1016FC00002D6AD194F83E20D2B2012A14BF0022E8
:10170C000122002A00F00081002E00F0FF80002B47
:10171C0000F0FE80002D74D1022284F83E20626A13
:10172C0082499162626A8249D162626A814911631B
:10173C00226834323146606AFEF7E6FF002840F03A
:10174C00EB802268D36843F40073D36001222946EE
:10175C002068FFF7AEFF2368774A934200F0C280FF
:10176C002368754A934200F0C280B3F1804F00F0B9
:10177C00BE80A2F59432934200F0B98002F58062EB
:10178C00934200F0B4801A6842F001021A60002003
:10179C00BBE0042909D008290FD090F84100C0B251
:1017AC00022814BF002001209FE790F83F00C0B230
:1017BC00022814BF0020012097E790F84000C0B227
:1017CC00022814BF002001208FE7042D09D0082D1A
:1017DC000FD094F84120D2B2012A14BF002201226A
:1017EC008FE794F83F20D2B2012A14BF00220122C5
:1017FC0087E794F84020D2B2012A14BF00220122BC
:10180C007FE7042D24D0082D3CD0022284F84120FF
:10181C000C2D7FD801A252F825F000BF2B17000821
:10182C002119000821190008211900086318000863
:10183C00211900082119000821190008971800081F
:10184C00211900082119000821190008C5180008E1
:10185C00022284F83F20A26A34499162A26A344978
:10186C00D162A26A33491163226838323146A06AC8
:10187C00FEF74AFF002851D12268D36843F48063F5
:10188C00D36063E7022284F84020E26A2749916220
:10189C00E26A2749D162E26A2649116322683C3226
:1018AC003146E06AFEF730FF002839D12268D36850
:1018BC0043F40063D36049E7226B1C499162226BAD
:1018CC001B49D162226B1B4911632268403231469D
:1018DC00206BFEF719FF28BB2268D36843F48053B2
:1018EC00D36033E75A6C42F400425A6438E79A6882
:1018FC0002F00702062A17D01A6842F001021A6099
:10190C00002002E0022000E0012070BD0120FCE775
:10191C000120FAE70120F8E70120F6E70120F4E7BF
:10192C000120F2E70120F0E70020EEE73D1200086D
:10193C00AF120008EF120008002C014090F83C2078
:10194C00012A2CD010B40346012280F83C2002223C
:10195C0080F83D2002685068946820F0700C08688C
:10196C0040EA0C0050601A680E4882420AD0B2F16C
:10197C00804F07D0A0F59430824203D000F58060F0
:10198C00824204D124F080044968214391600122F1
:10199C0083F83D20002083F83C0010BC70470220E7
:1019AC00704700BF002C01404FF0000CBCF1070F3A
:1019BC0037DC10B409E03C2443F82C404900C9B290
:1019CC000CF1010CBCF1070F0BDC11F0800FF2D104
:1019DC001E24F1E73C2143F82C104000C0B20CF15E
:1019EC00010CBCF10F0F0BDC10F0800FF2D11E219B
:1019FC00F1E73C2143F82C105200D2B20CF1010C4F
:101A0C00BCF1170F04DC12F0800FF2D11E21F1E7AC
:101A1C0010BC70473C2143F82C104000C0B20CF1B4
:101A2C00010CBCF10F0F0BDC10F0800FF2D11E215A
:101A3C00F1E73C2143F82C105200D2B20CF1010C0E
:101A4C00BCF1170F04DC12F0800FF2D11E21F1E76C
:101A5C007047000038B50546002416E0634204F0D8
:101A6C00070203F0070358BF5A4204EB440308482B
:101A7C0002EB420C00EB0C0105EB43138A7849781E
:101A8C0010F80C00FFF790FF01343F2CE6DD38BD59
:101A9C000C00002070B582B0134B5D7D8DF80450A6
:101AAC009C7D8DF80540DE7D8DF80660072313E0E4
:101ABC00591E0D4A01EB410002EB000C12F800E03C
:101ACC0003EB4303D01802F803E09CF80130437099
:101ADC009CF8023083700B46002BE9DC024B1D7026
:101AEC005C709E7002B070BD0C000020024B1B6835
:101AFC0000229A63704700BF8800002070B58607EB
:101B0C0047D0541E002A3ED00346CAB201E0013C25
:101B1C0039D303F8012B9D07F9D1032C2CD9CDB265
:101B2C0005EB05250F2C1A4605EB054534D9A4F118
:101B3C00100C2CF00F0603F1100EB6444FEA1C1CCF
:101B4C00156055609560D56010327245F8D10CF176
:101B5C00010214F00C0F03EB021204F00F0C13D063
:101B6C00ACF1040323F003030433134442F8045B85
:101B7C009A42FBD10CF003042CB1C9B21C4403F8FB
:101B8C00011B9C42FBD170BD64461346002CF4D162
:101B9C00F9E703461446C0E7A446E1E770B50F4BDE
:101BAC000F4DAB42A3EB050607D00024B61055F839
:101BBC00043B01349847A642F9D800F07FF8094D50
:101BCC00094B5E1BAB424FEAA60606D0002455F823
:101BDC00043B01349847A642F9D870BD041D000897
:101BEC00041D0008041D00080C1D0008704700BFF0
:101BFC00704700BF024B13B1024800F005B87047A4
:101C0C0000000000211C0008002301461A4618465B
:101C1C0000F014B838B5074D074C2C1BA41005D098
:101C2C00013C55F8043D9847002CF9D1BDE83840EB
:101C3C0000F04AB8101D00080C1D00082DE9F843EF
:101C4C001B4D0646286898460F469146FFF7CEFF77
:101C5C00184B1C681CB3286865681F2D22DC4EB914
:101C6C006B1C0235636044F82570FFF7C1FF002040
:101C7C00BDE8F883012304EB8501C1F88890D4F802
:101C8C008821AB401A43022EC4F88821C1F8088180
:101C9C00E6D1D4F88C211A43C4F88C21E0E7064C29
:101CAC001C60D8E7FFF7A4FF4FF0FF30E0E700BF60
:101CBC0024000020D8180020DC180020F8B500BF44
:101CCC00F8BC08BC9E467047F8B500BFF8BC08BC11
:041CDC009E46704769
:101CE00000000000000000000102030406070809CC
:101CF0000102000002030405060708090A0B0C0D87
:041D00000E0F1010A2
:081D0400011C00087501000834
:041D0C004D0100087D
:101D10000024F4000100000010000000FF0000FF9C
:101D20008000FFFF0000FF00007FFF0000FF8B002E
:081D3000FFFFFFFFD4180020A3
:040000050800048566
:00000001FF
